{
  "_format": "hh-sol-artifact-1",
  "contractName": "MixSender",
  "sourceName": "contracts/MixSender.sol",
  "abi": [
    {
      "constant": true,
      "inputs": [
        {
          "name": "",
          "type": "address"
        },
        {
          "name": "",
          "type": "uint256"
        },
        {
          "name": "",
          "type": "address"
        },
        {
          "name": "",
          "type": "uint256"
        }
      ],
      "name": "received",
      "outputs": [
        {
          "name": "",
          "type": "bool"
        }
      ],
      "payable": false,
      "stateMutability": "view",
      "type": "function"
    },
    {
      "constant": false,
      "inputs": [
        {
          "name": "fromChain",
          "type": "uint256"
        },
        {
          "name": "toChain",
          "type": "uint256"
        },
        {
          "name": "sender",
          "type": "address"
        },
        {
          "name": "sendId",
          "type": "uint256"
        },
        {
          "name": "amount",
          "type": "uint256"
        },
        {
          "name": "signature",
          "type": "bytes"
        }
      ],
      "name": "receiveOverHorizon",
      "outputs": [],
      "payable": false,
      "stateMutability": "nonpayable",
      "type": "function"
    },
    {
      "constant": true,
      "inputs": [],
      "name": "signer",
      "outputs": [
        {
          "name": "",
          "type": "address"
        }
      ],
      "payable": false,
      "stateMutability": "view",
      "type": "function"
    },
    {
      "constant": true,
      "inputs": [
        {
          "name": "sender",
          "type": "address"
        },
        {
          "name": "toChain",
          "type": "uint256"
        },
        {
          "name": "receiver",
          "type": "address"
        }
      ],
      "name": "sendCount",
      "outputs": [
        {
          "name": "",
          "type": "uint256"
        }
      ],
      "payable": false,
      "stateMutability": "view",
      "type": "function"
    },
    {
      "constant": false,
      "inputs": [
        {
          "name": "_signer",
          "type": "address"
        }
      ],
      "name": "setSigner",
      "outputs": [],
      "payable": false,
      "stateMutability": "nonpayable",
      "type": "function"
    },
    {
      "constant": false,
      "inputs": [],
      "name": "renounceOwnership",
      "outputs": [],
      "payable": false,
      "stateMutability": "nonpayable",
      "type": "function"
    },
    {
      "constant": true,
      "inputs": [],
      "name": "owner",
      "outputs": [
        {
          "name": "",
          "type": "address"
        }
      ],
      "payable": false,
      "stateMutability": "view",
      "type": "function"
    },
    {
      "constant": true,
      "inputs": [],
      "name": "isOwner",
      "outputs": [
        {
          "name": "",
          "type": "bool"
        }
      ],
      "payable": false,
      "stateMutability": "view",
      "type": "function"
    },
    {
      "constant": true,
      "inputs": [
        {
          "name": "",
          "type": "address"
        },
        {
          "name": "",
          "type": "uint256"
        },
        {
          "name": "",
          "type": "address"
        },
        {
          "name": "",
          "type": "uint256"
        }
      ],
      "name": "sended",
      "outputs": [
        {
          "name": "",
          "type": "uint256"
        }
      ],
      "payable": false,
      "stateMutability": "view",
      "type": "function"
    },
    {
      "constant": true,
      "inputs": [],
      "name": "mix",
      "outputs": [
        {
          "name": "",
          "type": "address"
        }
      ],
      "payable": false,
      "stateMutability": "view",
      "type": "function"
    },
    {
      "constant": false,
      "inputs": [
        {
          "name": "toChain",
          "type": "uint256"
        },
        {
          "name": "receiver",
          "type": "address"
        },
        {
          "name": "amount",
          "type": "uint256"
        }
      ],
      "name": "sendOverHorizon",
      "outputs": [
        {
          "name": "",
          "type": "uint256"
        }
      ],
      "payable": false,
      "stateMutability": "nonpayable",
      "type": "function"
    },
    {
      "constant": false,
      "inputs": [
        {
          "name": "newOwner",
          "type": "address"
        }
      ],
      "name": "transferOwnership",
      "outputs": [],
      "payable": false,
      "stateMutability": "nonpayable",
      "type": "function"
    },
    {
      "inputs": [
        {
          "name": "_mix",
          "type": "address"
        },
        {
          "name": "_signer",
          "type": "address"
        }
      ],
      "payable": false,
      "stateMutability": "nonpayable",
      "type": "constructor"
    },
    {
      "anonymous": false,
      "inputs": [
        {
          "indexed": true,
          "name": "signer",
          "type": "address"
        }
      ],
      "name": "SetSigner",
      "type": "event"
    },
    {
      "anonymous": false,
      "inputs": [
        {
          "indexed": true,
          "name": "sender",
          "type": "address"
        },
        {
          "indexed": true,
          "name": "toChain",
          "type": "uint256"
        },
        {
          "indexed": true,
          "name": "receiver",
          "type": "address"
        },
        {
          "indexed": false,
          "name": "sendId",
          "type": "uint256"
        },
        {
          "indexed": false,
          "name": "amount",
          "type": "uint256"
        }
      ],
      "name": "SendOverHorizon",
      "type": "event"
    },
    {
      "anonymous": false,
      "inputs": [
        {
          "indexed": true,
          "name": "receiver",
          "type": "address"
        },
        {
          "indexed": true,
          "name": "fromChain",
          "type": "uint256"
        },
        {
          "indexed": true,
          "name": "sender",
          "type": "address"
        },
        {
          "indexed": false,
          "name": "sendId",
          "type": "uint256"
        },
        {
          "indexed": false,
          "name": "amount",
          "type": "uint256"
        }
      ],
      "name": "ReceiveOverHorizon",
      "type": "event"
    },
    {
      "anonymous": false,
      "inputs": [
        {
          "indexed": true,
          "name": "previousOwner",
          "type": "address"
        },
        {
          "indexed": true,
          "name": "newOwner",
          "type": "address"
        }
      ],
      "name": "OwnershipTransferred",
      "type": "event"
    }
  ],
  "bytecode": "0x608060405234801561001057600080fd5b50604051604080610c478339810180604052604081101561003057600080fd5b508051602090910151600080546001600160a01b03191633178082556040516001600160a01b039190911691907f8be0079c531659141344cd1fd0a4f28419497f9722a3daafe3b4186f6b6457e0908290a3600180546001600160a01b039384166001600160a01b03199182161790915560028054929093169116179055610b8a806100bd6000396000f3fe608060405234801561001057600080fd5b50600436106100b45760003560e01c80638da5cb5b116100715780638da5cb5b146102715780638f32d59b14610279578063ba133b3314610281578063be32cf8d146102bb578063ec79b185146102c3578063f2fde38b146102f5576100b4565b80631c5489b7146100b95780632353387b14610107578063238ac933146101d75780635acfbbd3146101fb5780636c19e78314610243578063715018a614610269575b600080fd5b6100f3600480360360808110156100cf57600080fd5b506001600160a01b038135811691602081013591604082013516906060013561031b565b604080519115158252519081900360200190f35b6101d5600480360360c081101561011d57600080fd5b8135916020810135916001600160a01b03604083013516916060810135916080820135919081019060c0810160a082013564010000000081111561016057600080fd5b82018360208201111561017257600080fd5b8035906020019184600183028401116401000000008311171561019457600080fd5b91908080601f01602080910402602001604051908101604052809392919081815260200183838082843760009201919091525092955061034a945050505050565b005b6101df61071a565b604080516001600160a01b039092168252519081900360200190f35b6102316004803603606081101561021157600080fd5b506001600160a01b03813581169160208101359160409091013516610729565b60408051918252519081900360200190f35b6101d56004803603602081101561025957600080fd5b50356001600160a01b031661075c565b6101d5610802565b6101df6108a8565b6100f36108b7565b6102316004803603608081101561029757600080fd5b506001600160a01b03813581169160208101359160408201351690606001356108c8565b6101df610910565b610231600480360360608110156102d957600080fd5b508035906001600160a01b03602082013516906040013561091f565b6101d56004803603602081101561030b57600080fd5b50356001600160a01b0316610a2d565b600460209081526000948552604080862082529385528385208152918452828420909152825290205460ff1681565b80516041146103a35760408051600160e51b62461bcd02815260206004820152601860248201527f696e76616c6964207369676e6174757265206c656e6774680000000000000000604482015290519081900360640190fd5b33600090815260046020908152604080832089845282528083206001600160a01b0388168452825280832086845290915290205460ff16156103e457600080fd5b84612019146103f257600080fd5b6040805133606090811b602080840191909152603483018a9052605483018990526001600160a01b038816821b60748401526088830187905260a88084018790528451808503909101815260c8840185528051908201207f19457468657265756d205369676e6564204d6573736167653a0a33320000000060e88501526101048085018290528551808603909101815261012490940185528351938201939093209085015193850151918501519293909290919060001a7f7fffffffffffffffffffffffffffffff5d576e7357a4501ddfe92f46681b20a08211156105215760408051600160e51b62461bcd02815260206004820152601b60248201527f696e76616c6964207369676e6174757265202773272076616c75650000000000604482015290519081900360640190fd5b8060ff16601b148061053657508060ff16601c145b61058a5760408051600160e51b62461bcd02815260206004820152601b60248201527f696e76616c6964207369676e6174757265202776272076616c75650000000000604482015290519081900360640190fd5b6002546040805160008152602080820180845288905260ff851682840152606082018790526080820186905291516001600160a01b039093169260019260a0808401939192601f1981019281900390910190855afa1580156105f0573d6000803e3d6000fd5b505050602060405103516001600160a01b03161461060d57600080fd5b60015460408051600160e01b63a9059cbb028152336004820152602481018a905290516001600160a01b039092169163a9059cbb916044808201926020929091908290030181600087803b15801561066457600080fd5b505af1158015610678573d6000803e3d6000fd5b505050506040513d602081101561068e57600080fd5b50503360008181526004602090815260408083208f845282528083206001600160a01b038e168085529083528184208d8552835292819020805460ff1916600117905580518c81529182018b9052805192938f9390927f9b8cc913c3e25613faea2e6cfeb6dce457ef77c33f5d9f12119326580bec128f92908290030190a45050505050505050505050565b6002546001600160a01b031681565b6001600160a01b039283166000908152600360209081526040808320948352938152838220929094168152925290205490565b6107646108b7565b6107b85760408051600160e51b62461bcd02815260206004820181905260248201527f4f776e61626c653a2063616c6c6572206973206e6f7420746865206f776e6572604482015290519081900360640190fd5b600280546001600160a01b0319166001600160a01b0383169081179091556040517fbb10aee7ef5a307b8097c6a7f2892b909ff1736fd24a6a5260640c185f7153b690600090a250565b61080a6108b7565b61085e5760408051600160e51b62461bcd02815260206004820181905260248201527f4f776e61626c653a2063616c6c6572206973206e6f7420746865206f776e6572604482015290519081900360640190fd5b600080546040516001600160a01b03909116907f8be0079c531659141344cd1fd0a4f28419497f9722a3daafe3b4186f6b6457e0908390a3600080546001600160a01b0319169055565b6000546001600160a01b031690565b6000546001600160a01b0316331490565b600360205283600052604060002060205282600052604060002060205281600052604060002081815481106108f957fe5b906000526020600020016000935093505050505481565b6001546001600160a01b031681565b60015460408051600160e01b6323b872dd0281523360048201523060248201526044810184905290516000926001600160a01b0316916323b872dd91606480830192602092919082900301818787803b15801561097b57600080fd5b505af115801561098f573d6000803e3d6000fd5b505050506040513d60208110156109a557600080fd5b505033600081815260036020908152604080832088845282528083206001600160a01b038816808552908352818420805460018101825581865294849020850188905582518581529384018890528251909591938a937f88a9fbb0dbf3ab14fab2aaeca87654c792e7f2de49b08a01bdc60820e4429e4692918290030190a495945050505050565b610a356108b7565b610a895760408051600160e51b62461bcd02815260206004820181905260248201527f4f776e61626c653a2063616c6c6572206973206e6f7420746865206f776e6572604482015290519081900360640190fd5b610a9281610a95565b50565b6001600160a01b038116610add57604051600160e51b62461bcd028152600401808060200182810382526026815260200180610b396026913960400191505060405180910390fd5b600080546040516001600160a01b03808516939216917f8be0079c531659141344cd1fd0a4f28419497f9722a3daafe3b4186f6b6457e091a3600080546001600160a01b0319166001600160a01b039290921691909117905556fe4f776e61626c653a206e6577206f776e657220697320746865207a65726f2061646472657373a165627a7a72305820f17ab3e953a82abe6deff0111c9cf388fc17d77307e6f9799d7613980ca517840029",
  "linkReferences": {},
  "deployedLinkReferences": {}
}