{
  "_format": "hh-sol-artifact-1",
  "contractName": "MixSender",
  "sourceName": "contracts/MixSender.sol",
  "abi": [
    {
      "constant": true,
      "inputs": [
        {
          "name": "",
          "type": "address"
        },
        {
          "name": "",
          "type": "uint256"
        },
        {
          "name": "",
          "type": "address"
        },
        {
          "name": "",
          "type": "uint256"
        }
      ],
      "name": "received",
      "outputs": [
        {
          "name": "",
          "type": "bool"
        }
      ],
      "payable": false,
      "stateMutability": "view",
      "type": "function"
    },
    {
      "constant": false,
      "inputs": [
        {
          "name": "fromChain",
          "type": "uint256"
        },
        {
          "name": "toChain",
          "type": "uint256"
        },
        {
          "name": "sender",
          "type": "address"
        },
        {
          "name": "sendId",
          "type": "uint256"
        },
        {
          "name": "amount",
          "type": "uint256"
        },
        {
          "name": "signature",
          "type": "bytes"
        }
      ],
      "name": "receiveOverHorizon",
      "outputs": [],
      "payable": false,
      "stateMutability": "nonpayable",
      "type": "function"
    },
    {
      "constant": true,
      "inputs": [],
      "name": "signer",
      "outputs": [
        {
          "name": "",
          "type": "address"
        }
      ],
      "payable": false,
      "stateMutability": "view",
      "type": "function"
    },
    {
      "constant": true,
      "inputs": [
        {
          "name": "sender",
          "type": "address"
        },
        {
          "name": "toChain",
          "type": "uint256"
        },
        {
          "name": "receiver",
          "type": "address"
        }
      ],
      "name": "sendCount",
      "outputs": [
        {
          "name": "",
          "type": "uint256"
        }
      ],
      "payable": false,
      "stateMutability": "view",
      "type": "function"
    },
    {
      "constant": false,
      "inputs": [
        {
          "name": "_signer",
          "type": "address"
        }
      ],
      "name": "setSigner",
      "outputs": [],
      "payable": false,
      "stateMutability": "nonpayable",
      "type": "function"
    },
    {
      "constant": false,
      "inputs": [],
      "name": "renounceOwnership",
      "outputs": [],
      "payable": false,
      "stateMutability": "nonpayable",
      "type": "function"
    },
    {
      "constant": true,
      "inputs": [],
      "name": "owner",
      "outputs": [
        {
          "name": "",
          "type": "address"
        }
      ],
      "payable": false,
      "stateMutability": "view",
      "type": "function"
    },
    {
      "constant": true,
      "inputs": [],
      "name": "isOwner",
      "outputs": [
        {
          "name": "",
          "type": "bool"
        }
      ],
      "payable": false,
      "stateMutability": "view",
      "type": "function"
    },
    {
      "constant": true,
      "inputs": [
        {
          "name": "",
          "type": "address"
        },
        {
          "name": "",
          "type": "uint256"
        },
        {
          "name": "",
          "type": "address"
        },
        {
          "name": "",
          "type": "uint256"
        }
      ],
      "name": "sended",
      "outputs": [
        {
          "name": "",
          "type": "uint256"
        }
      ],
      "payable": false,
      "stateMutability": "view",
      "type": "function"
    },
    {
      "constant": true,
      "inputs": [],
      "name": "mix",
      "outputs": [
        {
          "name": "",
          "type": "address"
        }
      ],
      "payable": false,
      "stateMutability": "view",
      "type": "function"
    },
    {
      "constant": false,
      "inputs": [
        {
          "name": "toChain",
          "type": "uint256"
        },
        {
          "name": "receiver",
          "type": "address"
        },
        {
          "name": "amount",
          "type": "uint256"
        }
      ],
      "name": "sendOverHorizon",
      "outputs": [
        {
          "name": "",
          "type": "uint256"
        }
      ],
      "payable": false,
      "stateMutability": "nonpayable",
      "type": "function"
    },
    {
      "constant": false,
      "inputs": [
        {
          "name": "newOwner",
          "type": "address"
        }
      ],
      "name": "transferOwnership",
      "outputs": [],
      "payable": false,
      "stateMutability": "nonpayable",
      "type": "function"
    },
    {
      "inputs": [
        {
          "name": "_mix",
          "type": "address"
        },
        {
          "name": "_signer",
          "type": "address"
        }
      ],
      "payable": false,
      "stateMutability": "nonpayable",
      "type": "constructor"
    },
    {
      "anonymous": false,
      "inputs": [
        {
          "indexed": true,
          "name": "signer",
          "type": "address"
        }
      ],
      "name": "SetSigner",
      "type": "event"
    },
    {
      "anonymous": false,
      "inputs": [
        {
          "indexed": true,
          "name": "sender",
          "type": "address"
        },
        {
          "indexed": true,
          "name": "toChain",
          "type": "uint256"
        },
        {
          "indexed": true,
          "name": "receiver",
          "type": "address"
        },
        {
          "indexed": false,
          "name": "amount",
          "type": "uint256"
        }
      ],
      "name": "SendOverHorizon",
      "type": "event"
    },
    {
      "anonymous": false,
      "inputs": [
        {
          "indexed": true,
          "name": "receiver",
          "type": "address"
        },
        {
          "indexed": true,
          "name": "fromChain",
          "type": "uint256"
        },
        {
          "indexed": true,
          "name": "sender",
          "type": "address"
        },
        {
          "indexed": false,
          "name": "amount",
          "type": "uint256"
        }
      ],
      "name": "ReceiveOverHorizon",
      "type": "event"
    },
    {
      "anonymous": false,
      "inputs": [
        {
          "indexed": true,
          "name": "previousOwner",
          "type": "address"
        },
        {
          "indexed": true,
          "name": "newOwner",
          "type": "address"
        }
      ],
      "name": "OwnershipTransferred",
      "type": "event"
    }
  ],
  "bytecode": "0x608060405234801561001057600080fd5b50604051604080610bd28339810180604052604081101561003057600080fd5b508051602090910151600080546001600160a01b03191633178082556040516001600160a01b039190911691907f8be0079c531659141344cd1fd0a4f28419497f9722a3daafe3b4186f6b6457e0908290a3600180546001600160a01b039384166001600160a01b03199182161790915560028054929093169116179055610b15806100bd6000396000f3fe608060405234801561001057600080fd5b50600436106100b45760003560e01c80638da5cb5b116100715780638da5cb5b146102715780638f32d59b14610279578063ba133b3314610281578063be32cf8d146102bb578063ec79b185146102c3578063f2fde38b146102f5576100b4565b80631c5489b7146100b95780632353387b14610107578063238ac933146101d75780635acfbbd3146101fb5780636c19e78314610243578063715018a614610269575b600080fd5b6100f3600480360360808110156100cf57600080fd5b506001600160a01b038135811691602081013591604082013516906060013561031b565b604080519115158252519081900360200190f35b6101d5600480360360c081101561011d57600080fd5b8135916020810135916001600160a01b03604083013516916060810135916080820135919081019060c0810160a082013564010000000081111561016057600080fd5b82018360208201111561017257600080fd5b8035906020019184600183028401116401000000008311171561019457600080fd5b91908080601f01602080910402602001604051908101604052809392919081815260200183838082843760009201919091525092955061034a945050505050565b005b6101df6106a9565b604080516001600160a01b039092168252519081900360200190f35b6102316004803603606081101561021157600080fd5b506001600160a01b038135811691602081013591604090910135166106b8565b60408051918252519081900360200190f35b6101d56004803603602081101561025957600080fd5b50356001600160a01b03166106eb565b6101d5610791565b6101df610837565b6100f3610846565b6102316004803603608081101561029757600080fd5b506001600160a01b0381358116916020810135916040820135169060600135610857565b6101df61089f565b610231600480360360608110156102d957600080fd5b508035906001600160a01b0360208201351690604001356108ae565b6101d56004803603602081101561030b57600080fd5b50356001600160a01b03166109b8565b600460209081526000948552604080862082529385528385208152918452828420909152825290205460ff1681565b80516041146103a35760408051600160e51b62461bcd02815260206004820152601860248201527f696e76616c6964207369676e6174757265206c656e6774680000000000000000604482015290519081900360640190fd5b33600090815260046020908152604080832089845282528083206001600160a01b0388168452825280832086845290915290205460ff161515600114156103e957600080fd5b84612019146103f757600080fd5b6040805133606090811b602080840191909152603483018a9052605483018990526001600160a01b038816821b60748401526088830187905260a88084018790528451808503909101815260c8840185528051908201207f19457468657265756d205369676e6564204d6573736167653a0a33320000000060e88501526101048085019190915284518085039091018152610124909301845282519281019290922091840151928401519084015191929160001a601b8110156104b857601b015b8060ff16601b14806104cd57508060ff16601c145b6105215760408051600160e51b62461bcd02815260206004820152601960248201527f696e76616c6964207369676e61747572652076657273696f6e00000000000000604482015290519081900360640190fd5b6002546040805160008152602080820180845288905260ff851682840152606082018790526080820186905291516001600160a01b039093169260019260a0808401939192601f1981019281900390910190855afa158015610587573d6000803e3d6000fd5b505050602060405103516001600160a01b0316146105a457600080fd5b60015460408051600160e01b63a9059cbb0281523360048201526024810189905290516001600160a01b039092169163a9059cbb916044808201926020929091908290030181600087803b1580156105fb57600080fd5b505af115801561060f573d6000803e3d6000fd5b505050506040513d602081101561062557600080fd5b50503360008181526004602090815260408083208e845282528083206001600160a01b038d168085529083528184208c8552835292819020805460ff1916600117905580518a8152905192938e9390927f192653bf632422f9039899a2e47143c1850cd53ad50f2185f7cec7eda49d0925928290030190a450505050505050505050565b6002546001600160a01b031681565b6001600160a01b039283166000908152600360209081526040808320948352938152838220929094168152925290205490565b6106f3610846565b6107475760408051600160e51b62461bcd02815260206004820181905260248201527f4f776e61626c653a2063616c6c6572206973206e6f7420746865206f776e6572604482015290519081900360640190fd5b600280546001600160a01b0319166001600160a01b0383169081179091556040517fbb10aee7ef5a307b8097c6a7f2892b909ff1736fd24a6a5260640c185f7153b690600090a250565b610799610846565b6107ed5760408051600160e51b62461bcd02815260206004820181905260248201527f4f776e61626c653a2063616c6c6572206973206e6f7420746865206f776e6572604482015290519081900360640190fd5b600080546040516001600160a01b03909116907f8be0079c531659141344cd1fd0a4f28419497f9722a3daafe3b4186f6b6457e0908390a3600080546001600160a01b0319169055565b6000546001600160a01b031690565b6000546001600160a01b0316331490565b6003602052836000526040600020602052826000526040600020602052816000526040600020818154811061088857fe5b906000526020600020016000935093505050505481565b6001546001600160a01b031681565b60015460408051600160e01b6323b872dd0281523360048201523060248201526044810184905290516000926001600160a01b0316916323b872dd91606480830192602092919082900301818787803b15801561090a57600080fd5b505af115801561091e573d6000803e3d6000fd5b505050506040513d602081101561093457600080fd5b505033600081815260036020908152604080832088845282528083206001600160a01b038816808552908352818420805460018101825581865294849020850188905582518881529251909591938a937f16200def726d064a6b12487ab3893d8bbce1db80265a7c2f675955a01849dd06929081900390910190a495945050505050565b6109c0610846565b610a145760408051600160e51b62461bcd02815260206004820181905260248201527f4f776e61626c653a2063616c6c6572206973206e6f7420746865206f776e6572604482015290519081900360640190fd5b610a1d81610a20565b50565b6001600160a01b038116610a6857604051600160e51b62461bcd028152600401808060200182810382526026815260200180610ac46026913960400191505060405180910390fd5b600080546040516001600160a01b03808516939216917f8be0079c531659141344cd1fd0a4f28419497f9722a3daafe3b4186f6b6457e091a3600080546001600160a01b0319166001600160a01b039290921691909117905556fe4f776e61626c653a206e6577206f776e657220697320746865207a65726f2061646472657373a165627a7a72305820d1ba25322e898731c5649249aad6c076d1230f49effd1711de8801eac1a4608e0029",
  "linkReferences": {},
  "deployedLinkReferences": {}
}