{
  "_format": "hh-sol-artifact-1",
  "contractName": "MixSender",
  "sourceName": "contracts/MixSender.sol",
  "abi": [
    {
      "constant": false,
      "inputs": [
        {
          "name": "fromChain",
          "type": "uint256"
        },
        {
          "name": "sender",
          "type": "address"
        },
        {
          "name": "sendId",
          "type": "uint256"
        },
        {
          "name": "amount",
          "type": "uint256"
        },
        {
          "name": "signature",
          "type": "bytes"
        }
      ],
      "name": "receiveOverHorizon",
      "outputs": [],
      "payable": false,
      "stateMutability": "nonpayable",
      "type": "function"
    },
    {
      "constant": true,
      "inputs": [
        {
          "name": "",
          "type": "address"
        },
        {
          "name": "",
          "type": "uint256"
        },
        {
          "name": "",
          "type": "address"
        },
        {
          "name": "",
          "type": "uint256"
        }
      ],
      "name": "received",
      "outputs": [
        {
          "name": "",
          "type": "bool"
        }
      ],
      "payable": false,
      "stateMutability": "view",
      "type": "function"
    },
    {
      "constant": true,
      "inputs": [],
      "name": "signer",
      "outputs": [
        {
          "name": "",
          "type": "address"
        }
      ],
      "payable": false,
      "stateMutability": "view",
      "type": "function"
    },
    {
      "constant": true,
      "inputs": [
        {
          "name": "sender",
          "type": "address"
        },
        {
          "name": "toChain",
          "type": "uint256"
        },
        {
          "name": "receiver",
          "type": "address"
        }
      ],
      "name": "sendCount",
      "outputs": [
        {
          "name": "",
          "type": "uint256"
        }
      ],
      "payable": false,
      "stateMutability": "view",
      "type": "function"
    },
    {
      "constant": false,
      "inputs": [
        {
          "name": "_signer",
          "type": "address"
        }
      ],
      "name": "setSigner",
      "outputs": [],
      "payable": false,
      "stateMutability": "nonpayable",
      "type": "function"
    },
    {
      "constant": false,
      "inputs": [],
      "name": "renounceOwnership",
      "outputs": [],
      "payable": false,
      "stateMutability": "nonpayable",
      "type": "function"
    },
    {
      "constant": true,
      "inputs": [],
      "name": "owner",
      "outputs": [
        {
          "name": "",
          "type": "address"
        }
      ],
      "payable": false,
      "stateMutability": "view",
      "type": "function"
    },
    {
      "constant": true,
      "inputs": [],
      "name": "isOwner",
      "outputs": [
        {
          "name": "",
          "type": "bool"
        }
      ],
      "payable": false,
      "stateMutability": "view",
      "type": "function"
    },
    {
      "constant": true,
      "inputs": [
        {
          "name": "",
          "type": "address"
        },
        {
          "name": "",
          "type": "uint256"
        },
        {
          "name": "",
          "type": "address"
        },
        {
          "name": "",
          "type": "uint256"
        }
      ],
      "name": "sended",
      "outputs": [
        {
          "name": "",
          "type": "uint256"
        }
      ],
      "payable": false,
      "stateMutability": "view",
      "type": "function"
    },
    {
      "constant": true,
      "inputs": [],
      "name": "mix",
      "outputs": [
        {
          "name": "",
          "type": "address"
        }
      ],
      "payable": false,
      "stateMutability": "view",
      "type": "function"
    },
    {
      "constant": false,
      "inputs": [
        {
          "name": "toChain",
          "type": "uint256"
        },
        {
          "name": "receiver",
          "type": "address"
        },
        {
          "name": "amount",
          "type": "uint256"
        }
      ],
      "name": "sendOverHorizon",
      "outputs": [
        {
          "name": "",
          "type": "uint256"
        }
      ],
      "payable": false,
      "stateMutability": "nonpayable",
      "type": "function"
    },
    {
      "constant": false,
      "inputs": [
        {
          "name": "newOwner",
          "type": "address"
        }
      ],
      "name": "transferOwnership",
      "outputs": [],
      "payable": false,
      "stateMutability": "nonpayable",
      "type": "function"
    },
    {
      "inputs": [
        {
          "name": "_mix",
          "type": "address"
        },
        {
          "name": "_signer",
          "type": "address"
        }
      ],
      "payable": false,
      "stateMutability": "nonpayable",
      "type": "constructor"
    },
    {
      "anonymous": false,
      "inputs": [
        {
          "indexed": true,
          "name": "signer",
          "type": "address"
        }
      ],
      "name": "SetSigner",
      "type": "event"
    },
    {
      "anonymous": false,
      "inputs": [
        {
          "indexed": true,
          "name": "sender",
          "type": "address"
        },
        {
          "indexed": true,
          "name": "toChain",
          "type": "uint256"
        },
        {
          "indexed": true,
          "name": "receiver",
          "type": "address"
        },
        {
          "indexed": false,
          "name": "amount",
          "type": "uint256"
        }
      ],
      "name": "SendOverHorizon",
      "type": "event"
    },
    {
      "anonymous": false,
      "inputs": [
        {
          "indexed": true,
          "name": "receiver",
          "type": "address"
        },
        {
          "indexed": true,
          "name": "fromChain",
          "type": "uint256"
        },
        {
          "indexed": true,
          "name": "sender",
          "type": "address"
        },
        {
          "indexed": false,
          "name": "amount",
          "type": "uint256"
        }
      ],
      "name": "ReceiveOverHorizon",
      "type": "event"
    },
    {
      "anonymous": false,
      "inputs": [
        {
          "indexed": true,
          "name": "previousOwner",
          "type": "address"
        },
        {
          "indexed": true,
          "name": "newOwner",
          "type": "address"
        }
      ],
      "name": "OwnershipTransferred",
      "type": "event"
    }
  ],
  "bytecode": "0x608060405234801561001057600080fd5b50604051604080610bb48339810180604052604081101561003057600080fd5b508051602090910151600080546001600160a01b03191633178082556040516001600160a01b039190911691907f8be0079c531659141344cd1fd0a4f28419497f9722a3daafe3b4186f6b6457e0908290a3600180546001600160a01b039384166001600160a01b03199182161790915560028054929093169116179055610af7806100bd6000396000f3fe608060405234801561001057600080fd5b50600436106100b45760003560e01c80638da5cb5b116100715780638da5cb5b1461026a5780638f32d59b14610272578063ba133b331461027a578063be32cf8d146102b4578063ec79b185146102bc578063f2fde38b146102ee576100b4565b80630d268d0a146100b95780631c5489b714610182578063238ac933146101d05780635acfbbd3146101f45780636c19e7831461023c578063715018a614610262575b600080fd5b610180600480360360a08110156100cf57600080fd5b8135916001600160a01b036020820135169160408201359160608101359181019060a08101608082013564010000000081111561010b57600080fd5b82018360208201111561011d57600080fd5b8035906020019184600183028401116401000000008311171561013f57600080fd5b91908080601f016020809104026020016040519081016040528093929190818152602001838380828437600092019190915250929550610314945050505050565b005b6101bc6004803603608081101561019857600080fd5b506001600160a01b038135811691602081013591604082013516906060013561065c565b604080519115158252519081900360200190f35b6101d861068b565b604080516001600160a01b039092168252519081900360200190f35b61022a6004803603606081101561020a57600080fd5b506001600160a01b0381358116916020810135916040909101351661069a565b60408051918252519081900360200190f35b6101806004803603602081101561025257600080fd5b50356001600160a01b03166106cd565b610180610773565b6101d8610819565b6101bc610828565b61022a6004803603608081101561029057600080fd5b506001600160a01b0381358116916020810135916040820135169060600135610839565b6101d8610881565b61022a600480360360608110156102d257600080fd5b508035906001600160a01b036020820135169060400135610890565b6101806004803603602081101561030457600080fd5b50356001600160a01b031661099a565b805160411461036d5760408051600160e51b62461bcd02815260206004820152601860248201527f696e76616c6964207369676e6174757265206c656e6774680000000000000000604482015290519081900360640190fd5b33600090815260046020908152604080832088845282528083206001600160a01b0388168452825280832086845290915290205460ff161515600114156103b357600080fd5b6040805133606090811b602080840191909152603483018990526001600160a01b038816821b60548401526068830187905260888084018790528451808503909101815260a8840185528051908201207f19457468657265756d205369676e6564204d6573736167653a0a33320000000060c885015260e48085019190915284518085039091018152610104909301845282519281019290922091840151928401519084015191929160001a601b81101561046c57601b015b8060ff16601b148061048157508060ff16601c145b6104d55760408051600160e51b62461bcd02815260206004820152601960248201527f696e76616c6964207369676e61747572652076657273696f6e00000000000000604482015290519081900360640190fd5b6002546040805160008152602080820180845288905260ff851682840152606082018790526080820186905291516001600160a01b039093169260019260a0808401939192601f1981019281900390910190855afa15801561053b573d6000803e3d6000fd5b505050602060405103516001600160a01b03161461055857600080fd5b60015460408051600160e01b63a9059cbb0281523360048201526024810189905290516001600160a01b039092169163a9059cbb916044808201926020929091908290030181600087803b1580156105af57600080fd5b505af11580156105c3573d6000803e3d6000fd5b505050506040513d60208110156105d957600080fd5b50503360008181526004602090815260408083208d845282528083206001600160a01b038d168085529083528184208c8552835292819020805460ff1916600117905580518a8152905192938d9390927f192653bf632422f9039899a2e47143c1850cd53ad50f2185f7cec7eda49d0925928290030190a4505050505050505050565b600460209081526000948552604080862082529385528385208152918452828420909152825290205460ff1681565b6002546001600160a01b031681565b6001600160a01b039283166000908152600360209081526040808320948352938152838220929094168152925290205490565b6106d5610828565b6107295760408051600160e51b62461bcd02815260206004820181905260248201527f4f776e61626c653a2063616c6c6572206973206e6f7420746865206f776e6572604482015290519081900360640190fd5b600280546001600160a01b0319166001600160a01b0383169081179091556040517fbb10aee7ef5a307b8097c6a7f2892b909ff1736fd24a6a5260640c185f7153b690600090a250565b61077b610828565b6107cf5760408051600160e51b62461bcd02815260206004820181905260248201527f4f776e61626c653a2063616c6c6572206973206e6f7420746865206f776e6572604482015290519081900360640190fd5b600080546040516001600160a01b03909116907f8be0079c531659141344cd1fd0a4f28419497f9722a3daafe3b4186f6b6457e0908390a3600080546001600160a01b0319169055565b6000546001600160a01b031690565b6000546001600160a01b0316331490565b6003602052836000526040600020602052826000526040600020602052816000526040600020818154811061086a57fe5b906000526020600020016000935093505050505481565b6001546001600160a01b031681565b60015460408051600160e01b6323b872dd0281523360048201523060248201526044810184905290516000926001600160a01b0316916323b872dd91606480830192602092919082900301818787803b1580156108ec57600080fd5b505af1158015610900573d6000803e3d6000fd5b505050506040513d602081101561091657600080fd5b505033600081815260036020908152604080832088845282528083206001600160a01b038816808552908352818420805460018101825581865294849020850188905582518881529251909591938a937f16200def726d064a6b12487ab3893d8bbce1db80265a7c2f675955a01849dd06929081900390910190a495945050505050565b6109a2610828565b6109f65760408051600160e51b62461bcd02815260206004820181905260248201527f4f776e61626c653a2063616c6c6572206973206e6f7420746865206f776e6572604482015290519081900360640190fd5b6109ff81610a02565b50565b6001600160a01b038116610a4a57604051600160e51b62461bcd028152600401808060200182810382526026815260200180610aa66026913960400191505060405180910390fd5b600080546040516001600160a01b03808516939216917f8be0079c531659141344cd1fd0a4f28419497f9722a3daafe3b4186f6b6457e091a3600080546001600160a01b0319166001600160a01b039290921691909117905556fe4f776e61626c653a206e6577206f776e657220697320746865207a65726f2061646472657373a165627a7a72305820325e37de76da74974b106899b1e205286c41d88da3ac15c9a76b83e97a457ac30029",
  "linkReferences": {},
  "deployedLinkReferences": {}
}