{
    "_format": "hh-sol-artifact-1",
    "contractName": "Mix",
    "sourceName": "contracts/Mix.sol",
    "abi": [
        {
            "constant": true,
            "inputs": [
                {
                    "name": "interfaceId",
                    "type": "bytes4"
                }
            ],
            "name": "supportsInterface",
            "outputs": [
                {
                    "name": "",
                    "type": "bool"
                }
            ],
            "payable": false,
            "stateMutability": "view",
            "type": "function"
        },
        {
            "constant": true,
            "inputs": [],
            "name": "name",
            "outputs": [
                {
                    "name": "",
                    "type": "string"
                }
            ],
            "payable": false,
            "stateMutability": "view",
            "type": "function"
        },
        {
            "constant": false,
            "inputs": [
                {
                    "name": "spender",
                    "type": "address"
                },
                {
                    "name": "value",
                    "type": "uint256"
                }
            ],
            "name": "approve",
            "outputs": [
                {
                    "name": "",
                    "type": "bool"
                }
            ],
            "payable": false,
            "stateMutability": "nonpayable",
            "type": "function"
        },
        {
            "constant": true,
            "inputs": [],
            "name": "totalSupply",
            "outputs": [
                {
                    "name": "",
                    "type": "uint256"
                }
            ],
            "payable": false,
            "stateMutability": "view",
            "type": "function"
        },
        {
            "constant": true,
            "inputs": [],
            "name": "booth",
            "outputs": [
                {
                    "name": "",
                    "type": "address"
                }
            ],
            "payable": false,
            "stateMutability": "view",
            "type": "function"
        },
        {
            "constant": false,
            "inputs": [
                {
                    "name": "sender",
                    "type": "address"
                },
                {
                    "name": "recipient",
                    "type": "address"
                },
                {
                    "name": "amount",
                    "type": "uint256"
                }
            ],
            "name": "transferFrom",
            "outputs": [
                {
                    "name": "",
                    "type": "bool"
                }
            ],
            "payable": false,
            "stateMutability": "nonpayable",
            "type": "function"
        },
        {
            "constant": false,
            "inputs": [
                {
                    "name": "_booth",
                    "type": "address"
                }
            ],
            "name": "setBooth",
            "outputs": [],
            "payable": false,
            "stateMutability": "nonpayable",
            "type": "function"
        },
        {
            "constant": true,
            "inputs": [],
            "name": "decimals",
            "outputs": [
                {
                    "name": "",
                    "type": "uint8"
                }
            ],
            "payable": false,
            "stateMutability": "view",
            "type": "function"
        },
        {
            "constant": false,
            "inputs": [
                {
                    "name": "to",
                    "type": "address"
                },
                {
                    "name": "amount",
                    "type": "uint256"
                }
            ],
            "name": "mint",
            "outputs": [],
            "payable": false,
            "stateMutability": "nonpayable",
            "type": "function"
        },
        {
            "constant": false,
            "inputs": [
                {
                    "name": "recipient",
                    "type": "address"
                },
                {
                    "name": "amount",
                    "type": "uint256"
                }
            ],
            "name": "safeTransfer",
            "outputs": [],
            "payable": false,
            "stateMutability": "nonpayable",
            "type": "function"
        },
        {
            "constant": false,
            "inputs": [
                {
                    "name": "sender",
                    "type": "address"
                },
                {
                    "name": "recipient",
                    "type": "address"
                },
                {
                    "name": "amount",
                    "type": "uint256"
                }
            ],
            "name": "safeTransferFrom",
            "outputs": [],
            "payable": false,
            "stateMutability": "nonpayable",
            "type": "function"
        },
        {
            "constant": false,
            "inputs": [
                {
                    "name": "amount",
                    "type": "uint256"
                }
            ],
            "name": "burn",
            "outputs": [],
            "payable": false,
            "stateMutability": "nonpayable",
            "type": "function"
        },
        {
            "constant": true,
            "inputs": [
                {
                    "name": "account",
                    "type": "address"
                }
            ],
            "name": "balanceOf",
            "outputs": [
                {
                    "name": "",
                    "type": "uint256"
                }
            ],
            "payable": false,
            "stateMutability": "view",
            "type": "function"
        },
        {
            "constant": false,
            "inputs": [],
            "name": "renounceOwnership",
            "outputs": [],
            "payable": false,
            "stateMutability": "nonpayable",
            "type": "function"
        },
        {
            "constant": false,
            "inputs": [
                {
                    "name": "account",
                    "type": "address"
                },
                {
                    "name": "amount",
                    "type": "uint256"
                }
            ],
            "name": "burnFrom",
            "outputs": [],
            "payable": false,
            "stateMutability": "nonpayable",
            "type": "function"
        },
        {
            "constant": true,
            "inputs": [],
            "name": "owner",
            "outputs": [
                {
                    "name": "",
                    "type": "address"
                }
            ],
            "payable": false,
            "stateMutability": "view",
            "type": "function"
        },
        {
            "constant": true,
            "inputs": [],
            "name": "isOwner",
            "outputs": [
                {
                    "name": "",
                    "type": "bool"
                }
            ],
            "payable": false,
            "stateMutability": "view",
            "type": "function"
        },
        {
            "constant": true,
            "inputs": [],
            "name": "symbol",
            "outputs": [
                {
                    "name": "",
                    "type": "string"
                }
            ],
            "payable": false,
            "stateMutability": "view",
            "type": "function"
        },
        {
            "constant": false,
            "inputs": [
                {
                    "name": "_emitter",
                    "type": "address"
                }
            ],
            "name": "setEmitter",
            "outputs": [],
            "payable": false,
            "stateMutability": "nonpayable",
            "type": "function"
        },
        {
            "constant": false,
            "inputs": [
                {
                    "name": "recipient",
                    "type": "address"
                },
                {
                    "name": "amount",
                    "type": "uint256"
                }
            ],
            "name": "transfer",
            "outputs": [
                {
                    "name": "",
                    "type": "bool"
                }
            ],
            "payable": false,
            "stateMutability": "nonpayable",
            "type": "function"
        },
        {
            "constant": false,
            "inputs": [
                {
                    "name": "sender",
                    "type": "address"
                },
                {
                    "name": "recipient",
                    "type": "address"
                },
                {
                    "name": "amount",
                    "type": "uint256"
                },
                {
                    "name": "data",
                    "type": "bytes"
                }
            ],
            "name": "safeTransferFrom",
            "outputs": [],
            "payable": false,
            "stateMutability": "nonpayable",
            "type": "function"
        },
        {
            "constant": true,
            "inputs": [],
            "name": "emitter",
            "outputs": [
                {
                    "name": "",
                    "type": "address"
                }
            ],
            "payable": false,
            "stateMutability": "view",
            "type": "function"
        },
        {
            "constant": true,
            "inputs": [
                {
                    "name": "owner",
                    "type": "address"
                },
                {
                    "name": "spender",
                    "type": "address"
                }
            ],
            "name": "allowance",
            "outputs": [
                {
                    "name": "",
                    "type": "uint256"
                }
            ],
            "payable": false,
            "stateMutability": "view",
            "type": "function"
        },
        {
            "constant": false,
            "inputs": [
                {
                    "name": "recipient",
                    "type": "address"
                },
                {
                    "name": "amount",
                    "type": "uint256"
                },
                {
                    "name": "data",
                    "type": "bytes"
                }
            ],
            "name": "safeTransfer",
            "outputs": [],
            "payable": false,
            "stateMutability": "nonpayable",
            "type": "function"
        },
        {
            "constant": false,
            "inputs": [
                {
                    "name": "newOwner",
                    "type": "address"
                }
            ],
            "name": "transferOwnership",
            "outputs": [],
            "payable": false,
            "stateMutability": "nonpayable",
            "type": "function"
        },
        {
            "inputs": [],
            "payable": false,
            "stateMutability": "nonpayable",
            "type": "constructor"
        },
        {
            "anonymous": false,
            "inputs": [
                {
                    "indexed": true,
                    "name": "from",
                    "type": "address"
                },
                {
                    "indexed": true,
                    "name": "to",
                    "type": "address"
                },
                {
                    "indexed": false,
                    "name": "value",
                    "type": "uint256"
                }
            ],
            "name": "Transfer",
            "type": "event"
        },
        {
            "anonymous": false,
            "inputs": [
                {
                    "indexed": true,
                    "name": "owner",
                    "type": "address"
                },
                {
                    "indexed": true,
                    "name": "spender",
                    "type": "address"
                },
                {
                    "indexed": false,
                    "name": "value",
                    "type": "uint256"
                }
            ],
            "name": "Approval",
            "type": "event"
        },
        {
            "anonymous": false,
            "inputs": [
                {
                    "indexed": true,
                    "name": "previousOwner",
                    "type": "address"
                },
                {
                    "indexed": true,
                    "name": "newOwner",
                    "type": "address"
                }
            ],
            "name": "OwnershipTransferred",
            "type": "event"
        }
    ],
    "bytecode": "0x60806040523480156200001157600080fd5b50604080518082018252600781527f445343204d69780000000000000000000000000000000000000000000000000060208083019190915282518084018452600381527f4d4958000000000000000000000000000000000000000000000000000000000091810191909152600080546001600160a01b03191633178082559351929391926012926001600160a01b031691907f8be0079c531659141344cd1fd0a4f28419497f9722a3daafe3b4186f6b6457e0908290a3620000e06301ffc9a760e01b620001a260201b60201c565b620000f8636578737160e01b620001a260201b60201c565b62000110633b5a0bf860e01b620001a260201b60201c565b8251620001259060059060208601906200040f565b5081516200013b9060069060208501906200040f565b506007805460ff191660ff83161790556200017d7fa219a02500000000000000000000000000000000000000000000000000000000620001a2602090811b901c565b5050506200019c336987ee8d8cb213fe0000006200027460201b60201c565b620004b4565b7fffffffff0000000000000000000000000000000000000000000000000000000080821614156200023457604080517f08c379a000000000000000000000000000000000000000000000000000000000815260206004820152601b60248201527f4b495031333a20696e76616c696420696e746572666163652069640000000000604482015290519081900360640190fd5b7fffffffff00000000000000000000000000000000000000000000000000000000166000908152600160208190526040909120805460ff19169091179055565b6001600160a01b038216620002ea57604080517f08c379a000000000000000000000000000000000000000000000000000000000815260206004820152601e60248201527f4b4950373a206d696e7420746f20746865207a65726f20616464726573730000604482015290519081900360640190fd5b62000306816004546200039360201b620013221790919060201c565b6004556001600160a01b0382166000908152600260209081526040909120546200033b9183906200132262000393821b17901c565b6001600160a01b03831660008181526002602090815260408083209490945583518581529351929391927fddf252ad1be2c89b69c2b068fc378daa952ba7f163c4a11628f55a4df523b3ef9281900390910190a35050565b6000828201838110156200040857604080517f08c379a000000000000000000000000000000000000000000000000000000000815260206004820152601b60248201527f536166654d6174683a206164646974696f6e206f766572666c6f770000000000604482015290519081900360640190fd5b9392505050565b828054600181600116156101000203166002900490600052602060002090601f016020900481019282601f106200045257805160ff191683800117855562000482565b8280016001018555821562000482579182015b828111156200048257825182559160200191906001019062000465565b506200049092915062000494565b5090565b620004b191905b808211156200049057600081556001016200049b565b90565b6115d280620004c46000396000f3fe608060405234801561001057600080fd5b50600436106101735760003560e01c806370a08231116100de5780639f903ff611610097578063dce1137511610071578063dce113751461054b578063dd62ed3e14610553578063eb79554914610581578063f2fde38b1461063c57610173565b80639f903ff614610433578063a9059cbb14610459578063b88d4fde1461048557610173565b806370a08231146103c1578063715018a6146103e757806379cc6790146103ef5780638da5cb5b1461041b5780638f32d59b1461042357806395d89b411461042b57610173565b806327c089a71161013057806327c089a7146102d0578063313ce567146102f857806340c10f1914610316578063423f6cef1461034257806342842e0e1461036e57806342966c68146103a457610173565b806301ffc9a71461017857806306fdde03146101b3578063095ea7b31461023057806318160ddd1461025c5780631ae084251461027657806323b872dd1461029a575b600080fd5b61019f6004803603602081101561018e57600080fd5b50356001600160e01b031916610662565b604080519115158252519081900360200190f35b6101bb610681565b6040805160208082528351818301528351919283929083019185019080838360005b838110156101f55781810151838201526020016101dd565b50505050905090810190601f1680156102225780820380516001836020036101000a031916815260200191505b509250505060405180910390f35b61019f6004803603604081101561024657600080fd5b506001600160a01b038135169060200135610717565b61026461072e565b60408051918252519081900360200190f35b61027e610734565b604080516001600160a01b039092168252519081900360200190f35b61019f600480360360608110156102b057600080fd5b506001600160a01b03813581169160208101359091169060400135610743565b6102f6600480360360208110156102e657600080fd5b50356001600160a01b031661079a565b005b610300610806565b6040805160ff9092168252519081900360200190f35b6102f66004803603604081101561032c57600080fd5b506001600160a01b03813516906020013561080f565b6102f66004803603604081101561035857600080fd5b506001600160a01b038135169060200135610839565b6102f66004803603606081101561038457600080fd5b506001600160a01b03813581169160208101359091169060400135610853565b6102f6600480360360208110156103ba57600080fd5b5035610873565b610264600480360360208110156103d757600080fd5b50356001600160a01b03166108be565b6102f66108d9565b6102f66004803603604081101561040557600080fd5b506001600160a01b03813516906020013561096d565b61027e6109ae565b61019f6109bd565b6101bb6109ce565b6102f66004803603602081101561044957600080fd5b50356001600160a01b0316610a2f565b61019f6004803603604081101561046f57600080fd5b506001600160a01b038135169060200135610aa1565b6102f66004803603608081101561049b57600080fd5b6001600160a01b038235811692602081013590911691604082013591908101906080810160608201356401000000008111156104d657600080fd5b8201836020820111156104e857600080fd5b8035906020019184600183028401116401000000008311171561050a57600080fd5b91908080601f016020809104026020016040519081016040528093929190818152602001838380828437600092019190915250929550610aae945050505050565b61027e610b0a565b6102646004803603604081101561056957600080fd5b506001600160a01b0381358116916020013516610b1e565b6102f66004803603606081101561059757600080fd5b6001600160a01b03823516916020810135918101906060810160408201356401000000008111156105c757600080fd5b8201836020820111156105d957600080fd5b803590602001918460018302840111640100000000831117156105fb57600080fd5b91908080601f016020809104026020016040519081016040528093929190818152602001838380828437600092019190915250929550610b49945050505050565b6102f66004803603602081101561065257600080fd5b50356001600160a01b0316610b9e565b6001600160e01b03191660009081526001602052604090205460ff1690565b60058054604080516020601f600260001961010060018816150201909516949094049384018190048102820181019092528281526060939092909183018282801561070d5780601f106106e25761010080835404028352916020019161070d565b820191906000526020600020905b8154815290600101906020018083116106f057829003601f168201915b5050505050905090565b6000610724338484610bf4565b5060015b92915050565b60045490565b6008546001600160a01b031681565b6000610750848484610ce6565b6001600160a01b03841660009081526003602090815260408083203380855292529091205461079091869161078b908663ffffffff610e3016565b610bf4565b5060019392505050565b6107a26109bd565b6107e45760408051600160e51b62461bcd0281526020600482018190526024820152600080516020611564833981519152604482015290519081900360640190fd5b600880546001600160a01b0319166001600160a01b0392909216919091179055565b60075460ff1690565b60075461010090046001600160a01b0316331461082b57600080fd5b6108358282610e79565b5050565b610835828260405180602001604052806000815250610b49565b61086e83838360405180602001604052806000815250610aae565b505050565b60006108986103e861088c84600363ffffffff610f6e16565b9063ffffffff610fca16565b6008549091506108b1906001600160a01b031682610aa1565b506108353382840361100c565b6001600160a01b031660009081526002602052604090205490565b6108e16109bd565b6109235760408051600160e51b62461bcd0281526020600482018190526024820152600080516020611564833981519152604482015290519081900360640190fd5b600080546040516001600160a01b03909116907f8be0079c531659141344cd1fd0a4f28419497f9722a3daafe3b4186f6b6457e0908390a3600080546001600160a01b0319169055565b60006109866103e861088c84600363ffffffff610f6e16565b6008549091506109a19084906001600160a01b031683610743565b5061086e83828403611100565b6000546001600160a01b031690565b6000546001600160a01b0316331490565b60068054604080516020601f600260001961010060018816150201909516949094049384018190048102820181019092528281526060939092909183018282801561070d5780601f106106e25761010080835404028352916020019161070d565b610a376109bd565b610a795760408051600160e51b62461bcd0281526020600482018190526024820152600080516020611564833981519152604482015290519081900360640190fd5b600780546001600160a01b0390921661010002610100600160a81b0319909216919091179055565b6000610724338484610ce6565b610ab9848484610743565b50610ac684848484611145565b610b0457604051600160e51b62461bcd02815260040180806020018281038252602e8152602001806114a9602e913960400191505060405180910390fd5b50505050565b60075461010090046001600160a01b031681565b6001600160a01b03918216600090815260036020908152604080832093909416825291909152205490565b610b538383610aa1565b50610b6033848484611145565b61086e57604051600160e51b62461bcd02815260040180806020018281038252602e8152602001806114a9602e913960400191505060405180910390fd5b610ba66109bd565b610be85760408051600160e51b62461bcd0281526020600482018190526024820152600080516020611564833981519152604482015290519081900360640190fd5b610bf18161127f565b50565b6001600160a01b038316610c3c57604051600160e51b62461bcd0281526004018080602001828103825260238152602001806115846023913960400191505060405180910390fd5b6001600160a01b038216610c8457604051600160e51b62461bcd0281526004018080602001828103825260218152602001806114886021913960400191505060405180910390fd5b6001600160a01b03808416600081815260036020908152604080832094871680845294825291829020859055815185815291517f8c5be1e5ebec7d5bd14f71427d1e84f3dd0314c0f7b2291e5b200ac8c7c3b9259281900390910190a3505050565b6001600160a01b038316610d2e57604051600160e51b62461bcd02815260040180806020018281038252602481526020018061151f6024913960400191505060405180910390fd5b6001600160a01b038216610d7657604051600160e51b62461bcd0281526004018080602001828103825260228152602001806114fd6022913960400191505060405180910390fd5b6001600160a01b038316600090815260026020526040902054610d9f908263ffffffff610e3016565b6001600160a01b038085166000908152600260205260408082209390935590841681522054610dd4908263ffffffff61132216565b6001600160a01b0380841660008181526002602090815260409182902094909455805185815290519193928716927fddf252ad1be2c89b69c2b068fc378daa952ba7f163c4a11628f55a4df523b3ef92918290030190a3505050565b6000610e7283836040518060400160405280601e81526020017f536166654d6174683a207375627472616374696f6e206f766572666c6f77000081525061137f565b9392505050565b6001600160a01b038216610ed75760408051600160e51b62461bcd02815260206004820152601e60248201527f4b4950373a206d696e7420746f20746865207a65726f20616464726573730000604482015290519081900360640190fd5b600454610eea908263ffffffff61132216565b6004556001600160a01b038216600090815260026020526040902054610f16908263ffffffff61132216565b6001600160a01b03831660008181526002602090815260408083209490945583518581529351929391927fddf252ad1be2c89b69c2b068fc378daa952ba7f163c4a11628f55a4df523b3ef9281900390910190a35050565b600082610f7d57506000610728565b82820282848281610f8a57fe5b0414610e7257604051600160e51b62461bcd0281526004018080602001828103825260218152602001806115436021913960400191505060405180910390fd5b6000610e7283836040518060400160405280601a81526020017f536166654d6174683a206469766973696f6e206279207a65726f000000000000815250611419565b6001600160a01b03821661106a5760408051600160e51b62461bcd02815260206004820181905260248201527f4b4950373a206275726e2066726f6d20746865207a65726f2061646472657373604482015290519081900360640190fd5b60045461107d908263ffffffff610e3016565b6004556001600160a01b0382166000908152600260205260409020546110a9908263ffffffff610e3016565b6001600160a01b0383166000818152600260209081526040808320949094558351858152935191937fddf252ad1be2c89b69c2b068fc378daa952ba7f163c4a11628f55a4df523b3ef929081900390910190a35050565b61110a828261100c565b6001600160a01b03821660009081526003602090815260408083203380855292529091205461083591849161078b908563ffffffff610e3016565b6000611159846001600160a01b0316611481565b61116557506001611277565b604051600160e11b634e8c461102815233600482018181526001600160a01b03888116602485015260448401879052608060648501908152865160848601528651600095928a1694639d188c229490938c938b938b939260a4019060208501908083838e5b838110156111e25781810151838201526020016111ca565b50505050905090810190601f16801561120f5780820380516001836020036101000a031916815260200191505b5095505050505050602060405180830381600087803b15801561123157600080fd5b505af1158015611245573d6000803e3d6000fd5b505050506040513d602081101561125b57600080fd5b50516001600160e01b031916600160e11b634e8c461102149150505b949350505050565b6001600160a01b0381166112c757604051600160e51b62461bcd0281526004018080602001828103825260268152602001806114d76026913960400191505060405180910390fd5b600080546040516001600160a01b03808516939216917f8be0079c531659141344cd1fd0a4f28419497f9722a3daafe3b4186f6b6457e091a3600080546001600160a01b0319166001600160a01b0392909216919091179055565b600082820183811015610e725760408051600160e51b62461bcd02815260206004820152601b60248201527f536166654d6174683a206164646974696f6e206f766572666c6f770000000000604482015290519081900360640190fd5b6000818484111561141157604051600160e51b62461bcd0281526004018080602001828103825283818151815260200191508051906020019080838360005b838110156113d65781810151838201526020016113be565b50505050905090810190601f1680156114035780820380516001836020036101000a031916815260200191505b509250505060405180910390fd5b505050900390565b6000818361146b57604051600160e51b62461bcd0281526020600482018181528351602484015283519092839260449091019190850190808383600083156113d65781810151838201526020016113be565b50600083858161147757fe5b0495945050505050565b3b15159056fe4b4950373a20617070726f766520746f20746865207a65726f20616464726573734b4950373a207472616e7366657220746f206e6f6e204b495037526563656976657220696d706c656d656e7465724f776e61626c653a206e6577206f776e657220697320746865207a65726f20616464726573734b4950373a207472616e7366657220746f20746865207a65726f20616464726573734b4950373a207472616e736665722066726f6d20746865207a65726f2061646472657373536166654d6174683a206d756c7469706c69636174696f6e206f766572666c6f774f776e61626c653a2063616c6c6572206973206e6f7420746865206f776e65724b4950373a20617070726f76652066726f6d20746865207a65726f2061646472657373a165627a7a72305820f86d1b385629ba24404a41a2f90de8adbb4881b7fa80b26f632079b470f59d370029",
    "linkReferences": {},
    "deployedLinkReferences": {}
}