{
  "_format": "hh-sol-artifact-1",
  "contractName": "PolygonMix",
  "sourceName": "contracts/PolygonMix.sol",
  "abi": [
    {
      "inputs": [
        {
          "internalType": "address",
          "name": "_signer",
          "type": "address"
        }
      ],
      "stateMutability": "nonpayable",
      "type": "constructor"
    },
    {
      "anonymous": false,
      "inputs": [
        {
          "indexed": true,
          "internalType": "address",
          "name": "owner",
          "type": "address"
        },
        {
          "indexed": true,
          "internalType": "address",
          "name": "spender",
          "type": "address"
        },
        {
          "indexed": false,
          "internalType": "uint256",
          "name": "value",
          "type": "uint256"
        }
      ],
      "name": "Approval",
      "type": "event"
    },
    {
      "anonymous": false,
      "inputs": [
        {
          "indexed": true,
          "internalType": "address",
          "name": "previousOwner",
          "type": "address"
        },
        {
          "indexed": true,
          "internalType": "address",
          "name": "newOwner",
          "type": "address"
        }
      ],
      "name": "OwnershipTransferred",
      "type": "event"
    },
    {
      "anonymous": false,
      "inputs": [
        {
          "indexed": true,
          "internalType": "address",
          "name": "receiver",
          "type": "address"
        },
        {
          "indexed": true,
          "internalType": "uint256",
          "name": "fromChain",
          "type": "uint256"
        },
        {
          "indexed": true,
          "internalType": "address",
          "name": "sender",
          "type": "address"
        },
        {
          "indexed": false,
          "internalType": "uint256",
          "name": "amount",
          "type": "uint256"
        }
      ],
      "name": "ReceiveOverHorizon",
      "type": "event"
    },
    {
      "anonymous": false,
      "inputs": [
        {
          "indexed": true,
          "internalType": "address",
          "name": "sender",
          "type": "address"
        },
        {
          "indexed": true,
          "internalType": "uint256",
          "name": "toChain",
          "type": "uint256"
        },
        {
          "indexed": true,
          "internalType": "address",
          "name": "receiver",
          "type": "address"
        },
        {
          "indexed": false,
          "internalType": "uint256",
          "name": "amount",
          "type": "uint256"
        }
      ],
      "name": "SendOverHorizon",
      "type": "event"
    },
    {
      "anonymous": false,
      "inputs": [
        {
          "indexed": true,
          "internalType": "address",
          "name": "signer",
          "type": "address"
        }
      ],
      "name": "SetSigner",
      "type": "event"
    },
    {
      "anonymous": false,
      "inputs": [
        {
          "indexed": true,
          "internalType": "address",
          "name": "from",
          "type": "address"
        },
        {
          "indexed": true,
          "internalType": "address",
          "name": "to",
          "type": "address"
        },
        {
          "indexed": false,
          "internalType": "uint256",
          "name": "value",
          "type": "uint256"
        }
      ],
      "name": "Transfer",
      "type": "event"
    },
    {
      "inputs": [],
      "name": "DOMAIN_SEPARATOR",
      "outputs": [
        {
          "internalType": "bytes32",
          "name": "",
          "type": "bytes32"
        }
      ],
      "stateMutability": "view",
      "type": "function"
    },
    {
      "inputs": [],
      "name": "PERMIT_TYPEHASH",
      "outputs": [
        {
          "internalType": "bytes32",
          "name": "",
          "type": "bytes32"
        }
      ],
      "stateMutability": "view",
      "type": "function"
    },
    {
      "inputs": [
        {
          "internalType": "address",
          "name": "owner",
          "type": "address"
        },
        {
          "internalType": "address",
          "name": "spender",
          "type": "address"
        }
      ],
      "name": "allowance",
      "outputs": [
        {
          "internalType": "uint256",
          "name": "",
          "type": "uint256"
        }
      ],
      "stateMutability": "view",
      "type": "function"
    },
    {
      "inputs": [
        {
          "internalType": "address",
          "name": "spender",
          "type": "address"
        },
        {
          "internalType": "uint256",
          "name": "amount",
          "type": "uint256"
        }
      ],
      "name": "approve",
      "outputs": [
        {
          "internalType": "bool",
          "name": "",
          "type": "bool"
        }
      ],
      "stateMutability": "nonpayable",
      "type": "function"
    },
    {
      "inputs": [
        {
          "internalType": "address",
          "name": "account",
          "type": "address"
        }
      ],
      "name": "balanceOf",
      "outputs": [
        {
          "internalType": "uint256",
          "name": "",
          "type": "uint256"
        }
      ],
      "stateMutability": "view",
      "type": "function"
    },
    {
      "inputs": [],
      "name": "decimals",
      "outputs": [
        {
          "internalType": "uint8",
          "name": "",
          "type": "uint8"
        }
      ],
      "stateMutability": "view",
      "type": "function"
    },
    {
      "inputs": [
        {
          "internalType": "address",
          "name": "spender",
          "type": "address"
        },
        {
          "internalType": "uint256",
          "name": "subtractedValue",
          "type": "uint256"
        }
      ],
      "name": "decreaseAllowance",
      "outputs": [
        {
          "internalType": "bool",
          "name": "",
          "type": "bool"
        }
      ],
      "stateMutability": "nonpayable",
      "type": "function"
    },
    {
      "inputs": [
        {
          "internalType": "address",
          "name": "spender",
          "type": "address"
        },
        {
          "internalType": "uint256",
          "name": "addedValue",
          "type": "uint256"
        }
      ],
      "name": "increaseAllowance",
      "outputs": [
        {
          "internalType": "bool",
          "name": "",
          "type": "bool"
        }
      ],
      "stateMutability": "nonpayable",
      "type": "function"
    },
    {
      "inputs": [],
      "name": "name",
      "outputs": [
        {
          "internalType": "string",
          "name": "",
          "type": "string"
        }
      ],
      "stateMutability": "view",
      "type": "function"
    },
    {
      "inputs": [
        {
          "internalType": "address",
          "name": "",
          "type": "address"
        }
      ],
      "name": "nonces",
      "outputs": [
        {
          "internalType": "uint256",
          "name": "",
          "type": "uint256"
        }
      ],
      "stateMutability": "view",
      "type": "function"
    },
    {
      "inputs": [],
      "name": "owner",
      "outputs": [
        {
          "internalType": "address",
          "name": "",
          "type": "address"
        }
      ],
      "stateMutability": "view",
      "type": "function"
    },
    {
      "inputs": [
        {
          "internalType": "address",
          "name": "owner",
          "type": "address"
        },
        {
          "internalType": "address",
          "name": "spender",
          "type": "address"
        },
        {
          "internalType": "uint256",
          "name": "value",
          "type": "uint256"
        },
        {
          "internalType": "uint256",
          "name": "deadline",
          "type": "uint256"
        },
        {
          "internalType": "uint8",
          "name": "v",
          "type": "uint8"
        },
        {
          "internalType": "bytes32",
          "name": "r",
          "type": "bytes32"
        },
        {
          "internalType": "bytes32",
          "name": "s",
          "type": "bytes32"
        }
      ],
      "name": "permit",
      "outputs": [],
      "stateMutability": "nonpayable",
      "type": "function"
    },
    {
      "inputs": [
        {
          "internalType": "uint256",
          "name": "fromChain",
          "type": "uint256"
        },
        {
          "internalType": "uint256",
          "name": "toChain",
          "type": "uint256"
        },
        {
          "internalType": "address",
          "name": "sender",
          "type": "address"
        },
        {
          "internalType": "uint256",
          "name": "sendId",
          "type": "uint256"
        },
        {
          "internalType": "uint256",
          "name": "amount",
          "type": "uint256"
        },
        {
          "internalType": "bytes",
          "name": "signature",
          "type": "bytes"
        }
      ],
      "name": "receiveOverHorizon",
      "outputs": [],
      "stateMutability": "nonpayable",
      "type": "function"
    },
    {
      "inputs": [
        {
          "internalType": "address",
          "name": "",
          "type": "address"
        },
        {
          "internalType": "uint256",
          "name": "",
          "type": "uint256"
        },
        {
          "internalType": "address",
          "name": "",
          "type": "address"
        },
        {
          "internalType": "uint256",
          "name": "",
          "type": "uint256"
        }
      ],
      "name": "received",
      "outputs": [
        {
          "internalType": "bool",
          "name": "",
          "type": "bool"
        }
      ],
      "stateMutability": "view",
      "type": "function"
    },
    {
      "inputs": [],
      "name": "renounceOwnership",
      "outputs": [],
      "stateMutability": "nonpayable",
      "type": "function"
    },
    {
      "inputs": [
        {
          "internalType": "address",
          "name": "sender",
          "type": "address"
        },
        {
          "internalType": "uint256",
          "name": "toChain",
          "type": "uint256"
        },
        {
          "internalType": "address",
          "name": "receiver",
          "type": "address"
        }
      ],
      "name": "sendCount",
      "outputs": [
        {
          "internalType": "uint256",
          "name": "",
          "type": "uint256"
        }
      ],
      "stateMutability": "view",
      "type": "function"
    },
    {
      "inputs": [
        {
          "internalType": "uint256",
          "name": "toChain",
          "type": "uint256"
        },
        {
          "internalType": "address",
          "name": "receiver",
          "type": "address"
        },
        {
          "internalType": "uint256",
          "name": "amount",
          "type": "uint256"
        }
      ],
      "name": "sendOverHorizon",
      "outputs": [
        {
          "internalType": "uint256",
          "name": "",
          "type": "uint256"
        }
      ],
      "stateMutability": "nonpayable",
      "type": "function"
    },
    {
      "inputs": [
        {
          "internalType": "address",
          "name": "",
          "type": "address"
        },
        {
          "internalType": "uint256",
          "name": "",
          "type": "uint256"
        },
        {
          "internalType": "address",
          "name": "",
          "type": "address"
        },
        {
          "internalType": "uint256",
          "name": "",
          "type": "uint256"
        }
      ],
      "name": "sended",
      "outputs": [
        {
          "internalType": "uint256",
          "name": "",
          "type": "uint256"
        }
      ],
      "stateMutability": "view",
      "type": "function"
    },
    {
      "inputs": [
        {
          "internalType": "address",
          "name": "_signer",
          "type": "address"
        }
      ],
      "name": "setSigner",
      "outputs": [],
      "stateMutability": "nonpayable",
      "type": "function"
    },
    {
      "inputs": [],
      "name": "signer",
      "outputs": [
        {
          "internalType": "address",
          "name": "",
          "type": "address"
        }
      ],
      "stateMutability": "view",
      "type": "function"
    },
    {
      "inputs": [],
      "name": "symbol",
      "outputs": [
        {
          "internalType": "string",
          "name": "",
          "type": "string"
        }
      ],
      "stateMutability": "view",
      "type": "function"
    },
    {
      "inputs": [],
      "name": "totalSupply",
      "outputs": [
        {
          "internalType": "uint256",
          "name": "",
          "type": "uint256"
        }
      ],
      "stateMutability": "view",
      "type": "function"
    },
    {
      "inputs": [
        {
          "internalType": "address",
          "name": "recipient",
          "type": "address"
        },
        {
          "internalType": "uint256",
          "name": "amount",
          "type": "uint256"
        }
      ],
      "name": "transfer",
      "outputs": [
        {
          "internalType": "bool",
          "name": "",
          "type": "bool"
        }
      ],
      "stateMutability": "nonpayable",
      "type": "function"
    },
    {
      "inputs": [
        {
          "internalType": "address",
          "name": "from",
          "type": "address"
        },
        {
          "internalType": "address",
          "name": "to",
          "type": "address"
        },
        {
          "internalType": "uint256",
          "name": "amount",
          "type": "uint256"
        }
      ],
      "name": "transferFrom",
      "outputs": [
        {
          "internalType": "bool",
          "name": "",
          "type": "bool"
        }
      ],
      "stateMutability": "nonpayable",
      "type": "function"
    },
    {
      "inputs": [
        {
          "internalType": "address",
          "name": "newOwner",
          "type": "address"
        }
      ],
      "name": "transferOwnership",
      "outputs": [],
      "stateMutability": "nonpayable",
      "type": "function"
    },
    {
      "inputs": [],
      "name": "version",
      "outputs": [
        {
          "internalType": "string",
          "name": "",
          "type": "string"
        }
      ],
      "stateMutability": "view",
      "type": "function"
    }
  ],
  "bytecode": "0x60a06040523480156200001157600080fd5b5060405162001ba638038062001ba683398101604081905262000034916200028a565b6040518060400160405280600b81526020016a0a0ded8f2cededc409ad2f60ab1b815250604051806040016040528060048152602001630a09a92b60e31b815250604051806040016040528060018152602001603160f81b8152508282620000ab620000a56200019060201b60201c565b62000194565b8151620000c0906004906020850190620001e4565b508051620000d6906005906020840190620001e4565b50508151620000ee91506006906020840190620001e4565b508251602080850191909120825183830120604080517f8b73c3c69bb8fe3d512ecc4cf759cc79239f7b179b0ffacaa9a75d522b39400f94810194909452830191909152606082015246608082018190523060a08301529060c00160408051808303601f1901815291905280516020909101206080525050600880546001600160a01b0319166001600160a01b03949094169390931790925550620002f99050565b3390565b600080546001600160a01b038381166001600160a01b0319831681178455604051919092169283917f8be0079c531659141344cd1fd0a4f28419497f9722a3daafe3b4186f6b6457e09190a35050565b828054620001f290620002bc565b90600052602060002090601f01602090048101928262000216576000855562000261565b82601f106200023157805160ff191683800117855562000261565b8280016001018555821562000261579182015b828111156200026157825182559160200191906001019062000244565b506200026f92915062000273565b5090565b5b808211156200026f576000815560010162000274565b6000602082840312156200029d57600080fd5b81516001600160a01b0381168114620002b557600080fd5b9392505050565b600181811c90821680620002d157607f821691505b60208210811415620002f357634e487b7160e01b600052602260045260246000fd5b50919050565b60805161188a6200031c600039600081816102b10152610b4f015261188a6000f3fe608060405234801561001057600080fd5b506004361061018e5760003560e01c80636c19e783116100de578063a457c2d711610097578063d505accf11610071578063d505accf146103e5578063dd62ed3e146103f8578063ec79b18514610431578063f2fde38b1461044457600080fd5b8063a457c2d7146103ac578063a9059cbb146103bf578063ba133b33146103d257600080fd5b80636c19e7831461032f57806370a0823114610342578063715018a61461036b5780637ecebe00146103735780638da5cb5b1461039357806395d89b41146103a457600080fd5b806323b872dd1161014b5780633644e515116101255780633644e515146102ac57806339509351146102d357806354fd4d50146102e65780635acfbbd3146102ee57600080fd5b806323b872dd1461026357806330adf81f14610276578063313ce5671461029d57600080fd5b806306fdde0314610193578063095ea7b3146101b157806318160ddd146101d45780631c5489b7146101e65780632353387b14610223578063238ac93314610238575b600080fd5b61019b610457565b6040516101a89190611430565b60405180910390f35b6101c46101bf366004611466565b6104e9565b60405190151581526020016101a8565b6003545b6040519081526020016101a8565b6101c46101f4366004611490565b600a60209081526000948552604080862082529385528385208152918452828420909152825290205460ff1681565b6102366102313660046114ea565b6104ff565b005b60085461024b906001600160a01b031681565b6040516001600160a01b0390911681526020016101a8565b6101c46102713660046115d1565b6107ef565b6101d87f6e71edae12b1b97f4d1f60370fef10105fa2faae0126114a169c64845d6126c981565b604051601281526020016101a8565b6101d87f000000000000000000000000000000000000000000000000000000000000000081565b6101c46102e1366004611466565b610846565b61019b61087d565b6101d86102fc36600461160d565b6001600160a01b039283166000908152600960209081526040808320948352938152838220929094168152925290205490565b61023661033d366004611649565b61090b565b6101d8610350366004611649565b6001600160a01b031660009081526001602052604090205490565b61023661097f565b6101d8610381366004611649565b60076020526000908152604090205481565b6000546001600160a01b031661024b565b61019b6109b5565b6101c46103ba366004611466565b6109c4565b6101c46103cd366004611466565b610a5d565b6101d86103e0366004611490565b610a6a565b6102366103f3366004611664565b610ab5565b6101d86104063660046116d7565b6001600160a01b03918216600090815260026020908152604080832093909416825291909152205490565b6101d861043f36600461170a565b610d53565b610236610452366004611649565b610ddf565b6060600480546104669061172f565b80601f01602080910402602001604051908101604052809291908181526020018280546104929061172f565b80156104df5780601f106104b4576101008083540402835291602001916104df565b820191906000526020600020905b8154815290600101906020018083116104c257829003601f168201915b5050505050905090565b60006104f6338484610e7a565b50600192915050565b80516041146105555760405162461bcd60e51b815260206004820152601860248201527f696e76616c6964207369676e6174757265206c656e677468000000000000000060448201526064015b60405180910390fd5b336000908152600a6020908152604080832089845282528083206001600160a01b0388168452825280832086845290915290205460ff1615156001141561059b57600080fd5b468581146105a857600080fd5b6040516bffffffffffffffffffffffff1933606090811b82166020840152603483018a90526054830189905287901b1660748201526088810185905260a8810184905260009060c80160408051601f198184030181529082905280516020918201207f19457468657265756d205369676e6564204d6573736167653a0a33320000000091830191909152603c82018190529150605c0160408051601f19818403018152918152815160209283012091850151908501516060860151929350909160001a601b8110156106825761067f601b82611780565b90505b8060ff16601b148061069757508060ff16601c145b6106e35760405162461bcd60e51b815260206004820152601960248201527f696e76616c6964207369676e61747572652076657273696f6e00000000000000604482015260640161054c565b60085460408051600081526020810180835287905260ff84169181019190915260608101859052608081018490526001600160a01b039091169060019060a0016020604051602081039080840390855afa158015610745573d6000803e3d6000fd5b505050602060405103516001600160a01b03161461076257600080fd5b61076c3388610f9f565b336000818152600a602090815260408083208f845282528083206001600160a01b038e168085529083528184208d8552835292819020805460ff19166001179055518a815291928e9290917f192653bf632422f9039899a2e47143c1850cd53ad50f2185f7cec7eda49d0925910160405180910390a45050505050505050505050565b6001600160a01b0383166000908152600260209081526040808320338452909152812054600019811461083057610830853361082b86856117a5565b610e7a565b61083b85858561107e565b506001949350505050565b3360008181526002602090815260408083206001600160a01b038716845290915281205490916104f691859061082b9086906117bc565b6006805461088a9061172f565b80601f01602080910402602001604051908101604052809291908181526020018280546108b69061172f565b80156109035780601f106108d857610100808354040283529160200191610903565b820191906000526020600020905b8154815290600101906020018083116108e657829003601f168201915b505050505081565b6000546001600160a01b031633146109355760405162461bcd60e51b815260040161054c906117d4565b600880546001600160a01b0319166001600160a01b0383169081179091556040517fbb10aee7ef5a307b8097c6a7f2892b909ff1736fd24a6a5260640c185f7153b690600090a250565b6000546001600160a01b031633146109a95760405162461bcd60e51b815260040161054c906117d4565b6109b3600061124d565b565b6060600580546104669061172f565b3360009081526002602090815260408083206001600160a01b038616845290915281205482811015610a465760405162461bcd60e51b815260206004820152602560248201527f45524332303a2064656372656173656420616c6c6f77616e63652062656c6f77604482015264207a65726f60d81b606482015260840161054c565b610a533385858403610e7a565b5060019392505050565b60006104f633848461107e565b60096020528360005260406000206020528260005260406000206020528160005260406000208181548110610a9e57600080fd5b906000526020600020016000935093505050505481565b83421115610ac257600080fd5b6001600160a01b038781166000818152600760208181526040808420805482517f6e71edae12b1b97f4d1f60370fef10105fa2faae0126114a169c64845d6126c981860152808401889052978e166060890152608088018d905260a0880181905260c08089018d90528351808a03909101815260e08901845280519085012061190160f01b6101008a01527f00000000000000000000000000000000000000000000000000000000000000006101028a0152610122808a01919091528351808a0390910181526101429098019092528651968301969096209484529190529192600192909190610bb39084906117bc565b90915550506001600160a01b038781169089161415610bd157600080fd5b873b15610caa57604080516020810185905280820184905260f886901b6001600160f81b0319166060820152815160418183030181526061820192839052630b135d3f60e11b9092526001600160a01b038a1691631626ba7e91610c39918591606501611809565b60206040518083038186803b158015610c5157600080fd5b505afa158015610c65573d6000803e3d6000fd5b505050506040513d601f19601f82011682018060405250810190610c89919061182a565b6001600160e01b031916631626ba7e60e01b14610ca557600080fd5b610d3e565b6040805160008082526020820180845284905260ff871692820192909252606081018590526080810184905260019060a0016020604051602081039080840390855afa158015610cfe573d6000803e3d6000fd5b5050604051601f1901519150506001600160a01b038116610d1e57600080fd5b886001600160a01b0316816001600160a01b031614610d3c57600080fd5b505b610d49888888610e7a565b5050505050505050565b6000610d5f338361129d565b33600081815260096020908152604080832088845282528083206001600160a01b038816808552908352818420805460018101825581865294849020850188905591518781529194909289927f16200def726d064a6b12487ab3893d8bbce1db80265a7c2f675955a01849dd06910160405180910390a495945050505050565b6000546001600160a01b03163314610e095760405162461bcd60e51b815260040161054c906117d4565b6001600160a01b038116610e6e5760405162461bcd60e51b815260206004820152602660248201527f4f776e61626c653a206e6577206f776e657220697320746865207a65726f206160448201526564647265737360d01b606482015260840161054c565b610e778161124d565b50565b6001600160a01b038316610edc5760405162461bcd60e51b8152602060048201526024808201527f45524332303a20617070726f76652066726f6d20746865207a65726f206164646044820152637265737360e01b606482015260840161054c565b6001600160a01b038216610f3d5760405162461bcd60e51b815260206004820152602260248201527f45524332303a20617070726f766520746f20746865207a65726f206164647265604482015261737360f01b606482015260840161054c565b6001600160a01b0383811660008181526002602090815260408083209487168084529482529182902085905590518481527f8c5be1e5ebec7d5bd14f71427d1e84f3dd0314c0f7b2291e5b200ac8c7c3b92591015b60405180910390a3505050565b6001600160a01b038216610ff55760405162461bcd60e51b815260206004820152601f60248201527f45524332303a206d696e7420746f20746865207a65726f206164647265737300604482015260640161054c565b806003600082825461100791906117bc565b90915550506001600160a01b038216600090815260016020526040812080548392906110349084906117bc565b90915550506040518181526001600160a01b038316906000907fddf252ad1be2c89b69c2b068fc378daa952ba7f163c4a11628f55a4df523b3ef9060200160405180910390a35050565b6001600160a01b0383166110e25760405162461bcd60e51b815260206004820152602560248201527f45524332303a207472616e736665722066726f6d20746865207a65726f206164604482015264647265737360d81b606482015260840161054c565b6001600160a01b0382166111445760405162461bcd60e51b815260206004820152602360248201527f45524332303a207472616e7366657220746f20746865207a65726f206164647260448201526265737360e81b606482015260840161054c565b6001600160a01b038316600090815260016020526040902054818110156111bc5760405162461bcd60e51b815260206004820152602660248201527f45524332303a207472616e7366657220616d6f756e7420657863656564732062604482015265616c616e636560d01b606482015260840161054c565b6001600160a01b038085166000908152600160205260408082208585039055918516815290812080548492906111f39084906117bc565b92505081905550826001600160a01b0316846001600160a01b03167fddf252ad1be2c89b69c2b068fc378daa952ba7f163c4a11628f55a4df523b3ef8460405161123f91815260200190565b60405180910390a350505050565b600080546001600160a01b038381166001600160a01b0319831681178455604051919092169283917f8be0079c531659141344cd1fd0a4f28419497f9722a3daafe3b4186f6b6457e09190a35050565b6001600160a01b0382166112fd5760405162461bcd60e51b815260206004820152602160248201527f45524332303a206275726e2066726f6d20746865207a65726f206164647265736044820152607360f81b606482015260840161054c565b6001600160a01b038216600090815260016020526040902054818110156113715760405162461bcd60e51b815260206004820152602260248201527f45524332303a206275726e20616d6f756e7420657863656564732062616c616e604482015261636560f01b606482015260840161054c565b6001600160a01b03831660009081526001602052604081208383039055600380548492906113a09084906117a5565b90915550506040518281526000906001600160a01b038516907fddf252ad1be2c89b69c2b068fc378daa952ba7f163c4a11628f55a4df523b3ef90602001610f92565b6000815180845260005b81811015611409576020818501810151868301820152016113ed565b8181111561141b576000602083870101525b50601f01601f19169290920160200192915050565b60208152600061144360208301846113e3565b9392505050565b80356001600160a01b038116811461146157600080fd5b919050565b6000806040838503121561147957600080fd5b6114828361144a565b946020939093013593505050565b600080600080608085870312156114a657600080fd5b6114af8561144a565b9350602085013592506114c46040860161144a565b9396929550929360600135925050565b634e487b7160e01b600052604160045260246000fd5b60008060008060008060c0878903121561150357600080fd5b863595506020870135945061151a6040880161144a565b9350606087013592506080870135915060a087013567ffffffffffffffff8082111561154557600080fd5b818901915089601f83011261155957600080fd5b81358181111561156b5761156b6114d4565b604051601f8201601f19908116603f01168101908382118183101715611593576115936114d4565b816040528281528c60208487010111156115ac57600080fd5b8260208601602083013760006020848301015280955050505050509295509295509295565b6000806000606084860312156115e657600080fd5b6115ef8461144a565b92506115fd6020850161144a565b9150604084013590509250925092565b60008060006060848603121561162257600080fd5b61162b8461144a565b9250602084013591506116406040850161144a565b90509250925092565b60006020828403121561165b57600080fd5b6114438261144a565b600080600080600080600060e0888a03121561167f57600080fd5b6116888861144a565b96506116966020890161144a565b95506040880135945060608801359350608088013560ff811681146116ba57600080fd5b9699959850939692959460a0840135945060c09093013592915050565b600080604083850312156116ea57600080fd5b6116f38361144a565b91506117016020840161144a565b90509250929050565b60008060006060848603121561171f57600080fd5b833592506115fd6020850161144a565b600181811c9082168061174357607f821691505b6020821081141561176457634e487b7160e01b600052602260045260246000fd5b50919050565b634e487b7160e01b600052601160045260246000fd5b600060ff821660ff84168060ff0382111561179d5761179d61176a565b019392505050565b6000828210156117b7576117b761176a565b500390565b600082198211156117cf576117cf61176a565b500190565b6020808252818101527f4f776e61626c653a2063616c6c6572206973206e6f7420746865206f776e6572604082015260600190565b82815260406020820152600061182260408301846113e3565b949350505050565b60006020828403121561183c57600080fd5b81516001600160e01b03198116811461144357600080fdfea2646970667358221220c521d0c3e5eab15c8ee36ff51c9425a98517fe5c9fcd77817dbfe4d0e105173b64736f6c63430008090033",
  "linkReferences": {},
  "deployedLinkReferences": {}
}